{
  "_format": "hh-sol-artifact-1",
  "contractName": "StakingContract",
  "sourceName": "contracts/staker.sol",
  "abi": [
    {
      "inputs": [
        {
          "internalType": "contract IERC20",
          "name": "_token",
          "type": "address"
        }
      ],
      "stateMutability": "nonpayable",
      "type": "constructor"
    },
    {
      "anonymous": false,
      "inputs": [
        {
          "indexed": true,
          "internalType": "address",
          "name": "user",
          "type": "address"
        },
        {
          "indexed": false,
          "internalType": "uint256",
          "name": "amount",
          "type": "uint256"
        }
      ],
      "name": "ClaimedReward",
      "type": "event"
    },
    {
      "anonymous": false,
      "inputs": [
        {
          "indexed": true,
          "internalType": "address",
          "name": "user",
          "type": "address"
        },
        {
          "indexed": false,
          "internalType": "uint256",
          "name": "amount",
          "type": "uint256"
        },
        {
          "indexed": false,
          "internalType": "uint256",
          "name": "lockUpPlan",
          "type": "uint256"
        }
      ],
      "name": "Staked",
      "type": "event"
    },
    {
      "inputs": [
        {
          "internalType": "uint256",
          "name": "planID",
          "type": "uint256"
        },
        {
          "internalType": "address",
          "name": "user",
          "type": "address"
        }
      ],
      "name": "checkPlanEligibility",
      "outputs": [
        {
          "internalType": "bool",
          "name": "",
          "type": "bool"
        }
      ],
      "stateMutability": "view",
      "type": "function"
    },
    {
      "inputs": [],
      "name": "claimReward",
      "outputs": [],
      "stateMutability": "nonpayable",
      "type": "function"
    },
    {
      "inputs": [],
      "name": "compound",
      "outputs": [],
      "stateMutability": "nonpayable",
      "type": "function"
    },
    {
      "inputs": [
        {
          "internalType": "address",
          "name": "user",
          "type": "address"
        }
      ],
      "name": "displayEstimatedReward",
      "outputs": [
        {
          "internalType": "uint256",
          "name": "",
          "type": "uint256"
        }
      ],
      "stateMutability": "view",
      "type": "function"
    },
    {
      "inputs": [],
      "name": "numberOfUsers",
      "outputs": [
        {
          "internalType": "uint256",
          "name": "",
          "type": "uint256"
        }
      ],
      "stateMutability": "view",
      "type": "function"
    },
    {
      "inputs": [
        {
          "internalType": "uint256",
          "name": "amount",
          "type": "uint256"
        },
        {
          "internalType": "address",
          "name": "referralAddress",
          "type": "address"
        }
      ],
      "name": "stake",
      "outputs": [],
      "stateMutability": "nonpayable",
      "type": "function"
    },
    {
      "inputs": [
        {
          "internalType": "address",
          "name": "",
          "type": "address"
        }
      ],
      "name": "stakedAmounts",
      "outputs": [
        {
          "internalType": "uint256",
          "name": "amount",
          "type": "uint256"
        },
        {
          "internalType": "uint256",
          "name": "lockUpPlan",
          "type": "uint256"
        },
        {
          "internalType": "uint256",
          "name": "lastClaimTime",
          "type": "uint256"
        },
        {
          "internalType": "uint256",
          "name": "referralCount",
          "type": "uint256"
        },
        {
          "internalType": "uint256",
          "name": "totalWithdrawn",
          "type": "uint256"
        }
      ],
      "stateMutability": "view",
      "type": "function"
    },
    {
      "inputs": [
        {
          "internalType": "uint256",
          "name": "",
          "type": "uint256"
        }
      ],
      "name": "stakingParams",
      "outputs": [
        {
          "internalType": "uint256",
          "name": "minStake",
          "type": "uint256"
        },
        {
          "internalType": "uint256",
          "name": "maxWithdrawal",
          "type": "uint256"
        },
        {
          "internalType": "uint256",
          "name": "rewardPercentage",
          "type": "uint256"
        },
        {
          "internalType": "uint256",
          "name": "referralCount",
          "type": "uint256"
        }
      ],
      "stateMutability": "view",
      "type": "function"
    },
    {
      "inputs": [],
      "name": "token",
      "outputs": [
        {
          "internalType": "contract IERC20",
          "name": "",
          "type": "address"
        }
      ],
      "stateMutability": "view",
      "type": "function"
    },
    {
      "inputs": [],
      "name": "totalStakedAmount",
      "outputs": [
        {
          "internalType": "uint256",
          "name": "",
          "type": "uint256"
        }
      ],
      "stateMutability": "view",
      "type": "function"
    }
  ],
  "bytecode": "0x60806040526000601655600060175534801561001a57600080fd5b506040516110ff3803806110ff833981016040819052610039916100ed565b60008054610100600160a81b0319166101006001600160a01b03841602178155601e600190815561c3506002908155600f600381905560049384556064600590815562013880600655601960075560089290925560c8600955620186a0600a9081556023600b55600c92909255612710600d55620493e0600e5560289055601055614e20601155620c35006012556037601355601491600402016003015550601880546001600160a01b031916905561011d565b6000602082840312156100ff57600080fd5b81516001600160a01b038116811461011657600080fd5b9392505050565b610fd38061012c6000396000f3fe608060405234801561001057600080fd5b50600436106100be5760003560e01c8063b685389a11610076578063cfa565621161005b578063cfa56562146101c0578063f69e2046146101d3578063fc0c546a146101db57600080fd5b8063b685389a14610195578063b88a802f146101b857600080fd5b806375ce46a7116100a757806375ce46a7146101445780637acb77571461014d57806390b7091b1461016257600080fd5b806310c1c103146100c3578063567e98f91461012d575b600080fd5b6101006100d1366004610dd0565b601560205260009081526040902080546001820154600283015460038401546004909401549293919290919085565b604080519586526020860194909452928401919091526060830152608082015260a0015b60405180910390f35b61013660165481565b604051908152602001610124565b61013660175481565b61016061015b366004610deb565b61020b565b005b610175610170366004610e17565b610541565b604080519485526020850193909352918301526060820152608001610124565b6101a86101a3366004610deb565b61056f565b6040519015158152602001610124565b6101606105f9565b6101366101ce366004610dd0565b610795565b610160610863565b6000546101f39061010090046001600160a01b031681565b6040516001600160a01b039091168152602001610124565b60005460ff16156102635760405162461bcd60e51b815260206004820152601460248201527f50726576656e746564205265656e7472616e637900000000000000000000000060448201526064015b60405180910390fd5b6000805460ff19166001179055816102bd5760405162461bcd60e51b815260206004820152601d60248201527f416d6f756e74206d7573742062652067726561746572207468616e2030000000604482015260640161025a565b6000546040517f70a08231000000000000000000000000000000000000000000000000000000008152336004820152839161010090046001600160a01b0316906370a082319060240160206040518083038186803b15801561031e57600080fd5b505afa158015610332573d6000803e3d6000fd5b505050506040513d601f19601f820116820180604052508101906103569190610e30565b10156103a45760405162461bcd60e51b815260206004820152601360248201527f496e73756666696369656e7420746f6b656e7300000000000000000000000000604482015260640161025a565b336000908152601560205260409020546103be838261099e565b1161040b5760405162461bcd60e51b815260206004820152601960248201527f496e7465676572206f766572666c6f7720646574656374656400000000000000604482015260640161025a565b6000546104289061010090046001600160a01b03163330856109aa565b33600090815260156020526040902054610452576017805490600061044c83610e5f565b91905055505b3360009081526015602052604081208054849290610471908490610e7a565b9091555050336000908152601560205260408120426002909101556016805484929061049e908490610e7a565b90915550506001600160a01b038116156104df576001600160a01b03811660009081526015602052604081206003018054916104d983610e5f565b91905055505b6104e7610a61565b33600081815260156020908152604091829020600101548251868152918201527f1449c6dd7851abc30abf37f57715f492010519147cc2652fbc38202c18a6ee9091015b60405180910390a250506000805460ff19169055565b6001816005811061055157600080fd5b60040201805460018201546002830154600390930154919350919084565b60006001836005811061058457610584610e92565b60040201546001600160a01b038316600090815260156020526040902054108015906105f25750600183600581106105be576105be610e92565b600402016003015460156000846001600160a01b03166001600160a01b031681526020019081526020016000206003015410155b9392505050565b60005460ff161561064c5760405162461bcd60e51b815260206004820152601460248201527f50726576656e746564205265656e7472616e6379000000000000000000000000604482015260640161025a565b6000805460ff19166001179055610661610a61565b600061066c33610795565b9050600081116106be5760405162461bcd60e51b815260206004820152601060248201527f4e6f7468696e6720746f20636c61696d00000000000000000000000000000000604482015260640161025a565b33600090815260156020526040902060020154429062015180906106e29083610ea8565b10156106f057506107899050565b6107223361070a605a610704866064610ac5565b90610ad1565b60005461010090046001600160a01b03169190610add565b601854610742906001600160a01b031661070a600a610704866064610ac5565b3360008181526015602052604090819020600201839055517fd0813ff03c470dcc7baa9ce36914dc2febdfd276d639deffaac383fd3db42ba39061052b9085815260200190565b6000805460ff19169055565b6001600160a01b038116600090815260156020526040812080546001918201549091839082600581106107ca576107ca610e92565b6004020160020154905060006107f56103e86107ef8487610ad190919063ffffffff16565b90610ac5565b33600090815260156020526040812060019081015492935090916005811061081f5761081f610e92565b60049081029190910160010154336000908152601560205260409020909101549091508161084d828561099e565b1061085757600092505b50909695505050505050565b60005460ff16156108b65760405162461bcd60e51b815260206004820152601460248201527f50726576656e746564205265656e7472616e6379000000000000000000000000604482015260640161025a565b6000805460ff191660011790556108cb610a61565b60006108d633610795565b9050600081116109285760405162461bcd60e51b815260206004820152601360248201527f4e6f7468696e6720746f20636f6d706f756e6400000000000000000000000000604482015260640161025a565b336000908152601560205260409020600201544290620151809061094c9083610ea8565b101561095a57506107899050565b3360009081526015602052604081208054849290610979908490610e7a565b909155505033600090815260156020526040902060020155506000805460ff19169055565b60006105f28284610e7a565b6040516001600160a01b0380851660248301528316604482015260648101829052610a5b9085907f23b872dd00000000000000000000000000000000000000000000000000000000906084015b60408051601f198184030181529190526020810180517bffffffffffffffffffffffffffffffffffffffffffffffffffffffff167fffffffff0000000000000000000000000000000000000000000000000000000090931692909217909152610b2b565b50505050565b336000908152601560205260408120600190810154610a7f91610e7a565b90505b6005811015610ac257610a95813361056f565b15610ab0573360009081526015602052604090206001018190555b80610aba81610e5f565b915050610a82565b50565b60006105f28284610ebf565b60006105f28284610ee1565b6040516001600160a01b038316602482015260448101829052610b269084907fa9059cbb00000000000000000000000000000000000000000000000000000000906064016109f7565b505050565b6000610b80826040518060400160405280602081526020017f5361666545524332303a206c6f772d6c6576656c2063616c6c206661696c6564815250856001600160a01b0316610c109092919063ffffffff16565b805190915015610b265780806020019051810190610b9e9190610f00565b610b265760405162461bcd60e51b815260206004820152602a60248201527f5361666545524332303a204552433230206f7065726174696f6e20646964206e60448201527f6f74207375636365656400000000000000000000000000000000000000000000606482015260840161025a565b6060610c1f8484600085610c27565b949350505050565b606082471015610c9f5760405162461bcd60e51b815260206004820152602660248201527f416464726573733a20696e73756666696369656e742062616c616e636520666f60448201527f722063616c6c0000000000000000000000000000000000000000000000000000606482015260840161025a565b600080866001600160a01b03168587604051610cbb9190610f4e565b60006040518083038185875af1925050503d8060008114610cf8576040519150601f19603f3d011682016040523d82523d6000602084013e610cfd565b606091505b5091509150610d0e87838387610d19565b979650505050505050565b60608315610d85578251610d7e576001600160a01b0385163b610d7e5760405162461bcd60e51b815260206004820152601d60248201527f416464726573733a2063616c6c20746f206e6f6e2d636f6e7472616374000000604482015260640161025a565b5081610c1f565b610c1f8383815115610d9a5781518083602001fd5b8060405162461bcd60e51b815260040161025a9190610f6a565b80356001600160a01b0381168114610dcb57600080fd5b919050565b600060208284031215610de257600080fd5b6105f282610db4565b60008060408385031215610dfe57600080fd5b82359150610e0e60208401610db4565b90509250929050565b600060208284031215610e2957600080fd5b5035919050565b600060208284031215610e4257600080fd5b5051919050565b634e487b7160e01b600052601160045260246000fd5b6000600019821415610e7357610e73610e49565b5060010190565b60008219821115610e8d57610e8d610e49565b500190565b634e487b7160e01b600052603260045260246000fd5b600082821015610eba57610eba610e49565b500390565b600082610edc57634e487b7160e01b600052601260045260246000fd5b500490565b6000816000190483118215151615610efb57610efb610e49565b500290565b600060208284031215610f1257600080fd5b815180151581146105f257600080fd5b60005b83811015610f3d578181015183820152602001610f25565b83811115610a5b5750506000910152565b60008251610f60818460208701610f22565b9190910192915050565b6020815260008251806020840152610f89816040850160208701610f22565b601f01601f1916919091016040019291505056fea26469706673582212202955707cfcddbe58f50811321e437757d6f7555071d1c13bda25fb12fb7faff964736f6c63430008090033",
  "linkReferences": {},
  "deployedLinkReferences": {}
}